:100000000C9434000C9449000C9449000C94490061
:100010000C9449000C9449000C9449000C9449003C
:100020000C9449000C9449000C9449000C9449002C
:100030000C9449000C9449000C9449000C9449001C
:100040000C9449000C9449000C9449000C9449000C
:100050000C9449000C9449000C9449000C944900FC
:100060000C9449000C94490011241FBECFEFD8E036
:10007000DEBFCDBF11E0A0E0B1E0EAE5F5E002C0EF
:1000800005900D92A63CB107D9F70E941E020C9470
:10009000AB020C940000A1ECB0E08C9188608C93D2
:1000A0008C9180618C9387E68093C4001092C50088
:1000B000E2ECF0E080818F77808380818F7B80838A
:1000C0008C918B7F8C9380818660808380818F7EF2
:1000D000808380818F7D80838081877F8083089566
:1000E0009091C00095FFFCCF8093C6000895809149
:1000F000C00087FFFCCF8091C6000895CF93DF93A7
:10010000EC018991811103C0DF91CF9108950E9484
:100110007000F7CF1092800088E08093810087EA1A
:1001200091E690938900809388008091810083609C
:1001300080938100B19AB19BFECF10928100B19A59
:100140000895CF93DF93D82FC0E0CD1303C0DF9184
:10015000CF9108950E948A00CF5FF7CF0F931F932E
:10016000CF93DF9300D000D0CDB7DEB78C01F8017C
:1001700081918F01811109C00F900F900F900F9006
:10018000DF91CF911F910F9108952D9AF80131972A
:10019000808148E552E08E3211F448EC50E090E066
:1001A00080E0299A1C821B822B813C81283E3340AF
:1001B000B0F029981A82198229813A81283E334069
:1001C000B0F001964817590761F72D982998F80162
:1001D0008081882361F282E00E94A100C8CF0000E4
:1001E0002B813C812F5F3F4F3C832B83DDCF000071
:1001F00029813A812F5F3F4F3A832983DDCF86E003
:100200000C94A1008EE00C94A100E82F8FEB8E0FD0
:100210008A3148F4E154FF0BEE0FFF1FE050FF4F0F
:100220008081918108958FE98E0F8A3118F4E1560B
:10023000FF0BF2CF80ED8E0FE651FF0B8A3060F39B
:1002400090E080E00895429A85E08A95F1F70000F9
:1002500042980895CF93C82F662341F1409A419860
:10026000529A539A549A559A5D985C985B985A980A
:10027000C7FD5D9AC6FD5C9AC5FD5B9AC4FD5A9A9E
:100280000E9423015D985C985B985A98C3FD5D9A23
:10029000C2FD5C9AC1FD5B9AC0FD5A9A0E9423017F
:1002A0005A9A5B9A5C9A5D9ACF9108954098D7CFFD
:1002B0004098419A5298539854985598429A85E09C
:1002C0008A95F1F700004A9B1BC080E14B99806240
:1002D0004C9980644D998068429895E09A95F1F721
:1002E0000000429A95E09A95F1F700004A998160E2
:1002F0004B9982604C9984604D998860429808952A
:1003000080E0E4CF0E94580187FDFCCF85E18A950B
:10031000F1F700000C945801CF93C82F0E9482017E
:1003200060E08C2FCF910C942A01CF93C82F0E94AC
:10033000820161E08C2FCF910C942A01611103C0DE
:1003400080580C948C018054FCCF0E94820190E074
:10035000089581E00C948C0182E00C948C01CF9381
:10036000C82F0E948201CA3049F4803428F080E00E
:100370008058CF910C948C0180E4FACF61E08C2FEF
:10038000CF910C942A01CF93DF93EC0189918111D5
:1003900003C0DF91CF9108950E94AF01F7CFCF93B3
:1003A000DF93EC01FE0184912196811103C0DF915E
:1003B000CF9108950E94AF01F5CFCF93C82F389AFF
:1003C000399A3A9A529A539A549A559A8FEF99EFCA
:1003D0000197F1F700C000005B9A5A9A0E9423012E
:1003E0008FE19EE40197F1F700C000000E94230115
:1003F0008FEF90E00197F1F700C000000E94230109
:100400008FEF90E00197F1F700C000005A980E942A
:1004100023018FEF90E00197F1F700C0000088E220
:100420000E948C0188E00E948C010E94A90186E054
:100430000E948C018C2FCF910C948C01CF93DF9371
:10044000CDB7DEB7C058D1090FB6F894DEBF0FBEE6
:10045000CDBF84B18C6384B9219A2D982A982B98AA
:100460002C9829980E944B008CE00E94DD010E948C
:10047000A90188E491E00E94C30110E00E94770086
:10048000082F0E9470000A3019F00D3009F052C098
:10049000E1E0F0E0EC0FFD1FE10FF11D10820E9482
:1004A000A901F12C0F2D10E0E1E0F0E0EC0FFD1FB1
:1004B000E00FF11F808181110CC00E94A90186E527
:1004C00091E00E94C3012C9A8AE00E94A1002C981E
:1004D000D4CF803249F42B9A0E9402012B9880E2FB
:1004E0000E94AF01F394DECF0E9405016C010097DA
:1004F000C9F30E94AE002A9A82E00E94A1002A98C5
:100500000E94FF000E94A901E12CF601EE0DF11DF1
:10051000808181110BC080E20E94AF01E1E0F0E038
:10052000EC0FFD1FE00FF11F8081DACF0E94AF01B9
:10053000E394EBCF1F3708F0A1CF80EE800F8F350B
:1005400008F09CCFE1E0F0E0EC0FFD1FE10FF11DA2
:0A05500000831F5F93CFF894FFCFE4
:10055A007C01B4016601BB01C3016B01C101AE019B
:10056A00BC0196017B0170018C01C2018B017501EE
:10057A007A016701B5018D018001A20185017F0120
:10058A008401BA0189018F0195019B01A101A7018B
:10059A00AD01B301B901BF014D6F727365204465A6
:1005AA00636F64657200656E64206F662073656EA2
:1005BA0074656E6365002D2E2D2E002E2E2D2E00B5
:1005CA002E2D2E2E002E2D2D2E002D2D2E2D002DD2
:1005DA002E2E2D002D2E2D2D002D2D2D2D2D002EC4
:1005EA002D2D2D2D002E2E2D2D2D002E2E2E2D2D86
:1005FA00002E2E2E2E2D002E2E2E2E2E002D2E2E9D
:10060A002E2E002D2D2E2E2E002D2D2D2E2E002D90
:06061A002D2D2D2E000025
:00000001FF
