:100000000C9434000C9449000C9449000C94490061
:100010000C9449000C9449000C9449000C9449003C
:100020000C9449000C9449000C9449000C9449002C
:100030000C9449000C9449000C9449000C9449001C
:100040000C9449000C9449000C9449000C9449000C
:100050000C9449000C9449000C9449000C944900FC
:100060000C9449000C94490011241FBECFEFD8E036
:10007000DEBFCDBF12E0A0E0B1E0E6EAF5E002C0ED
:1000800005900D92AE32B107D9F70E94EB010C94A6
:10009000D1020C940000A1ECB0E08C9188608C93AC
:1000A0008C9180618C9387E68093C4001092C50088
:1000B000E2ECF0E080818F77808380818F7B80838A
:1000C0008C918B7F8C9380818660808380818F7EF2
:1000D000808380818F7D80838081877F8083089566
:1000E0009091C00095FFFCCF8093C6000895809149
:1000F000C00087FFFCCF8091C6000895CF93DF93A7
:10010000EC018991811103C0DF91CF9108950E9484
:100110007000F7CF1092800088E08093810087EA1A
:1001200091E690938900809388008091810083609C
:1001300080938100B19AB19BFECF10928100B19A59
:100140000895EF92FF920F931F93CF93DF937C015B
:1001500008E411E0D0E0C0E0F801808191810097CF
:1001600011F48FE30FC0B7010E94C8020D5F1F4F4B
:10017000892B79F4FE01EE0FFF1FEC0FFD1FE85BEA
:10018000FE4F8281DF91CF911F910F91FF90EF90F1
:1001900008952196E1CF67EB71E00E94C80221E04B
:1001A000892B09F020E0822F0895CF93DF9300D0B0
:1001B000CDB7DEB7019728F40F900F90DF91CF9164
:1001C00008951A82198229813A81203D374090F79B
:1001D000000029813A812F5F3F4F3A832983F3CF73
:1001E000429A85E08A95F1F7000042980895CF93EE
:1001F000C82F662341F1409A4198529A539A549AD3
:10020000559A5D985C985B985A98C7FD5D9AC6FDB3
:100210005C9AC5FD5B9AC4FD5A9A0E94F0005D98F5
:100220005C985B985A98C3FD5D9AC2FD5C9AC1FDCB
:100230005B9AC0FD5A9A0E94F0005A9A5B9A5C9AA7
:100240005D9ACF9108954098D7CF4098419A52989F
:10025000539854985598429A85E08A95F1F7000092
:100260004A9B1BC080E14B9980624C9980644D99F8
:100270008068429895E09A95F1F70000429A95E0DF
:100280009A95F1F700004A9981604B9982604C99E8
:1002900084604D9988604298089580E0E4CF0E9480
:1002A000250187FDFCCF85E18A95F1F700000C94CC
:1002B0002501CF93C82F0E944F0160E08C2FCF9172
:1002C0000C94F700CF93C82F0E944F0161E08C2F50
:1002D000CF910C94F700611103C080580C94590120
:1002E0008054FCCF0E944F0190E0089581E00C946F
:1002F000590182E00C945901CF93C82F0E944F01FD
:10030000CA3049F4803428F080E08058CF910C94B2
:10031000590180E4FACF61E08C2FCF910C94F70063
:10032000CF93DF93EC018991811103C0DF91CF91CD
:1003300008950E947C01F7CFCF93DF93EC01FE017B
:1003400084912196811103C0DF91CF9108950E947D
:100350007C01F5CFCF93C82F389A399A3A9A529A9E
:10036000539A549A559A8FEF99EF0197F1F700C07D
:1003700000005B9A5A9A0E94F0008FE19EE4019778
:10038000F1F700C000000E94F0008FEF90E00197AD
:10039000F1F700C000000E94F0008FEF90E001979D
:1003A000F1F700C000005A980E94F0008FEF90E033
:1003B0000197F1F700C0000088E20E94590188E02F
:1003C0000E9459010E94760186E00E9459018C2FFB
:1003D000CF910C945901CF93DF93CDB7DEB7AA9795
:1003E0000FB6F894DEBF0FBECDBF259A219A57985D
:1003F0005F9A8CE00E94AA010E94760160E080E092
:100400000E946B018DEB91E00E9490016E0122E24F
:10041000C20ED11C89E0F60111928A95E9F7CE014E
:1004200001967C0181E2F70111928A95E9F781E05A
:1004300010E000E090E2892E2DE2322E3EE2232EE3
:1004400099B1992E991C9924991C97FD25C0882350
:10045000B9F02D9A299AB12CA12C4F9B13C02D983D
:100460002998802F90E00F5F8C0D9D1DFC0128ECDA
:10047000A216B10478F42082F601E00FF11D10827B
:10048000892DDECF81E090E00E94D500FFEFAF1A0A
:10049000BF0AE3CF3082F0CF8111F2CF412C512C33
:1004A00032014F9B49C028E7421625E052066104FD
:1004B0007104B9F5011160C081E0810FF701E10F0E
:1004C000F11D8082F701E80FF11D1082182F00E066
:1004D000C6010E94CB00882399F20E94760160E059
:1004E00080E00E946B018BEC91E00E94900160E043
:1004F00081E00E946B01C7010E9490011AA219823B
:1005000080ED97E00E94D5000E94760160E080E0D7
:100510000E946B018DEB91E00E94900110E000E0E1
:10052000AFCF81E090E00E94D500FFEF4F1A5F0A45
:100530006F0A7F0A4F99B5CF88E7481685E05806BD
:100540006104710409F4B6CF98E5491692E05906A2
:100550006104710408F4BCCF002349F0C6010E9475
:10056000A100F701E10FF11D80831AA21F5FF701BF
:10057000E10FF11D1082ABCF01E0010FC6010E9417
:10058000A100F701E10FF11D80831AA2102F94CF73
:10059000FB01DC018D91019080190110D9F3990BB9
:0605A0000895F894FFCF5E
:1005A600E5011D02B80124022C02D4012A02170219
:1005B6002502FF01E401D901F5012B02F401DE0158
:1005C600E301B9011E02F601E9010B02EE01E801A1
:1005D600ED012302F201F801FE0104020A021002F3
:1005E60016021C0222022802E501411D0242B80140
:1005F600432402442C0245D401462A0247170248E6
:10060600250249FF014AE4014BD9014CF5014D2B66
:10061600024EF4014FDE0150E30151B901521E02B0
:1006260053F60154E901550B0256EE0157E80158FD
:10063600ED015923025AF20130F80131FE0132046C
:1006460002330A02341002351602361C0237220221
:10065600382802390000002E2D2E2D2E004D6F72E7
:100666007365204465636F646572004465636F64F7
:1006760065643A002E2E2D2E002E2D2E2E002E2DA8
:100686002D2E002D2D2E2D002D2E2E2D002D2E2D16
:100696002D002D2D2D2D2D002E2D2D2D2D002E2E08
:1006A6002D2D2D002E2E2E2D2D002E2E2E2E2D00F4
:1006B6002E2E2E2E2E002D2E2E2E2E002D2D2E2EB3
:0E06C6002E002D2D2D2E2E002D2D2D2D2E0033
:00000001FF
