:100000000C9434000C9449000C9449000C94490061
:100010000C9449000C9449000C9449000C9449003C
:100020000C9449000C9449000C9449000C9449002C
:100030000C9449000C9449000C9449000C9449001C
:100040000C9449000C9449000C9449000C9449000C
:100050000C9449000C9449000C9449000C944900FC
:100060000C9449000C94490011241FBECFEFD8E036
:10007000DEBFCDBF11E0A0E0B1E0E6E6F5E002C0F2
:1000800005900D92A63CB107D9F70E9410020C947E
:10009000B1020C940000A1ECB0E08C9188608C93CC
:1000A0008C9180618C9387E68093C4001092C50088
:1000B000E2ECF0E080818F77808380818F7B80838A
:1000C0008C918B7F8C9380818660808380818F7EF2
:1000D000808380818F7D80838081877F8083089566
:1000E0009091C00095FFFCCF8093C6000895809149
:1000F000C00087FFFCCF8091C6000895CF93DF93A7
:10010000EC018991811103C0DF91CF9108950E9484
:100110007000F7CF82E084BD15BC89EF87BD83E016
:1001200085BD84E690E0A99AA99BFECF0197D9F7F7
:1001300015BC14BC0895CF93DF93D82FC0E0CD1326
:1001400003C0DF91CF9108950E948A00CF5FF7CF5F
:10015000219A80E4809380008BE0809381008CE77B
:1001600090E0909389008093880008951092800019
:100170001092810029980895EF92FF920F931F9398
:10018000CF93DF93EC0184E6E82EF12C8991811165
:1001900007C0DF91CF911F910F91FF90EF900895CD
:1001A0002D9AFE013197808108E512E08E3211F41C
:1001B00008EC10E00E94A800C801B7010E949D024F
:1001C000062F10E00E948A001F5F1017D8F30E94CC
:1001D000B6002D9888818823C9F282E00E949B0096
:1001E000D5CF86E00C949B008EE00C949B00E82F0A
:1001F0008FEB8E0F8A3148F4E154FF0BEE0FFF1F97
:10020000E050FF4F8081918108958FE98E0F8A31F0
:1002100018F4E156FF0BF2CF80ED8E0FE651FF0B85
:100220008A3060F390E080E00895429A85E08A95F4
:10023000F1F7000042980895CF93C82F662341F14B
:10024000409A4198529A539A549A559A5D985C985C
:100250005B985A98C7FD5D9AC6FD5C9AC5FD5B9A8E
:10026000C4FD5A9A0E9415015D985C985B985A9853
:10027000C3FD5D9AC2FD5C9AC1FD5B9AC0FD5A9AAE
:100280000E9415015A9A5B9A5C9A5D9ACF910895E3
:100290004098D7CF4098419A52985398549855987F
:1002A000429A85E08A95F1F700004A9B1BC080E1E5
:1002B0004B9980624C9980644D998068429895E092
:1002C0009A95F1F70000429A95E09A95F1F70000AF
:1002D0004A9981604B9982604C9984604D998860FD
:1002E0004298089580E0E4CF0E944A0187FDFCCF48
:1002F00085E18A95F1F700000C944A01CF93C82F4D
:100300000E94740160E08C2FCF910C941C01CF935C
:10031000C82F0E94740161E08C2FCF910C941C01B6
:10032000611103C080580C947E018054FCCF0E9460
:10033000740190E0089581E00C947E0182E00C94B9
:100340007E01CF93C82F0E947401CA3049F48034D3
:1003500028F080E08058CF910C947E0180E4FACFA1
:1003600061E08C2FCF910C941C01CF93DF93EC01B3
:100370008991811103C0DF91CF9108950E94A1015D
:10038000F7CFCF93DF93EC01FE0184912196811189
:1003900003C0DF91CF9108950E94A101F5CFCF93C3
:1003A000C82F389A399A3A9A529A539A549A559A27
:1003B0008FEF99EF0197F1F700C000005B9A5A9A0E
:1003C0000E9415018FE19EE40197F1F700C0000043
:1003D0000E9415018FEF90E00197F1F700C0000037
:1003E0000E9415018FEF90E00197F1F700C0000027
:1003F0005A980E9415018FEF90E00197F1F700C025
:10040000000088E20E947E0188E00E947E010E9436
:100410009B0186E00E947E018C2FCF910C947E017F
:10042000CF93DF93CDB7DEB7C058D1090FB6F8949C
:10043000DEBF0FBECDBF84B18C6384B9219A2D98E5
:100440002A982B982C9829980E944B008CE00E94A7
:10045000CF010E949B0188E491E00E94B50110E069
:100460000E947700082F0E9470000A3019F00D30AA
:1004700009F052C0E1E0F0E0EC0FFD1FE10FF11DCB
:1004800010820E949B01F12C0F2D10E0E1E0F0E0C2
:10049000EC0FFD1FE00FF11F808181110CC00E9445
:1004A0009B0186E591E00E94B5012C9A8AE00E94AA
:1004B0009B002C98D4CF803249F42B9A0E94F400F0
:1004C0002B9880E20E94A101F394DECF0E94F700F6
:1004D0006C010097C9F30E94BC002A9A82E00E9436
:1004E0009B002A980E94F1000E949B01E12CF601DA
:1004F000EE0DF11D808181110BC080E20E94A101EF
:10050000E1E0F0E0EC0FFD1FE00FF11F8081DACF9A
:100510000E94A101E394EBCF1F3708F0A1CF80EE3A
:10052000800F8F3508F09CCFE1E0F0E0EC0FFD1F6D
:10053000E10FF11D00831F5F93CFAA1BBB1B51E18D
:1005400007C0AA1FBB1FA617B70710F0A61BB70B43
:10055000881F991F5A95A9F780959095BC01CD01E8
:060560000895F894FFCF9E
:100566007C01B4016601BB01C3016B01C101AE018F
:10057600BC0196017B0170018C01C2018B017501E2
:100586007A016701B5018D018001A20185017F0114
:100596008401BA0189018F0195019B01A101A7017F
:1005A600AD01B301B901BF014D6F72736520456E90
:1005B600636F64657200656E64206F662073656E96
:1005C60074656E6365002D2E2D2E002E2E2D2E00A9
:1005D6002E2D2E2E002E2D2D2E002D2D2E2D002DC6
:1005E6002E2E2D002D2E2D2D002D2D2D2D2D002EB8
:1005F6002D2D2D2D002E2E2D2D2D002E2E2E2D2D7A
:10060600002E2E2E2E2D002E2E2E2E2E002D2E2E90
:100616002E2E002D2D2E2E2E002D2D2D2E2E002D84
:060626002D2D2D2E000019
:00000001FF
