:100000000C9434000C943E000C943E000C943E0082
:100010000C943E000C943E000C943E000C943E0068
:100020000C943E000C943E000C943E000C943E0058
:100030000C943E000C943E000C943E000C943E0048
:100040000C943E000C943E000C943E000C943E0038
:100050000C943E000C943E000C943E000C943E0028
:100060000C943E000C943E0011241FBECFEFD8E04C
:10007000DEBFCDBF0E9440000C94BA000C9400007B
:1000800084B18C6384B920E931E02A9A88EE93E048
:10009000F9013197F1F70197D9F72A9A2B9A88EE4F
:1000A00093E0F9013197F1F70197D9F72A982B9A44
:1000B00088EE93E0F9013197F1F70197D9F72B9A80
:1000C0002C9A88EE93E0F9013197F1F70197D9F76F
:1000D0002B982C9A88EE93E0F9013197F1F701976C
:1000E000D9F72C9A2D9A88EE93E0F9013197F1F720
:1000F0000197D9F72C982D9A80ED97E0F901319767
:10010000F1F70197D9F72D9A2C9A88EE93E0F9012F
:100110003197F1F70197D9F72D982C9A88EE93E053
:10012000F9013197F1F70197D9F72C9A2B9A88EEBC
:1001300093E0F9013197F1F70197D9F72C982B9AB1
:1001400088EE93E0F9013197F1F70197D9F72B9AEF
:100150002A9A88EE93E0F9013197F1F70197D9F7E0
:100160002B982A9A80ED97E0F9013197F1F70197E2
:08017000D9F78BCFF894FFCF03
:00000001FF
