:100000000C9434000C9449000C9449000C94490061
:100010000C9449000C9449000C9449000C9449003C
:100020000C9449000C9449000C9449000C9449002C
:100030000C9449000C9449000C9449000C9449001C
:100040000C9449000C9449000C9449000C9449000C
:100050000C9449000C9449000C9449000C944900FC
:100060000C9449000C94490011241FBECFEFD8E036
:10007000DEBFCDBF11E0A0E0B1E0EAEAF2E002C0ED
:1000800005900D92AC31B107D9F70E94ED000C94A8
:1000900053010C940000019708F40895EFE9FFE084
:1000A0003197F1F700C00000F6CF9C01219A80E45F
:1000B00080938000E1E8F0E088E080839081692B04
:1000C0006083309389002093880008954F925F9257
:1000D0006F927F928F929F92AF92BF92CF92DF9258
:1000E000EF92FF920F931F93CF93DF93CDB7DEB7BD
:1000F00064970FB6F894DEBF0FBECDBF4B012AE068
:10010000E0E0F1E0DE011B9601900D922A95E1F707
:100110002AE0EAE0F1E0DE01119601900D922A95C5
:10012000E1F7B0E0A0E06C017D01CC0CDD1CEE1C21
:10013000FF1C5E012BE0A20EB11C10E000E0412C80
:1001400044E2542E44EF642E712CF501A191B1913B
:100150005F01A70196010E9439019B01AC01C30117
:10016000B2010E941701DA01C9010197A109B10981
:100170000097F1E0AF07B10548F5000F111FE1E06E
:10018000F0E0EC0FFD1FE00FF11F608171810E9414
:100190005500C4010E944B0010928100299864967A
:1001A0000FB6F894DEBF0FBECDBFDF91CF911F9188
:1001B0000F91FF90EF90DF90CF90BF90AF909F9006
:1001C0008F907F906F905F904F9008950F5F1F4FBB
:1001D0000530110509F0B9CFDCCFCF93DF93CDB750
:1001E000DEB728970FB6F894DEBF0FBECDBF88E00C
:1001F000E4E1F1E0DE01119601900D928A95E1F7BC
:100200007E0189E0E80EF11C8E010F5F1F4F64EF45
:1002100071E0F801819191918F010E94660088EC54
:1002200090E00E944B000E151F0589F7EDCFA1E26B
:100230001A2EAA1BBB1BFD010DC0AA1FBB1FEE1F60
:10024000FF1FA217B307E407F50720F0A21BB30BAB
:10025000E40BF50B661F771F881F991F1A9469F727
:1002600060957095809590959B01AC01BD01CF0183
:1002700008950E944401A59F900DB49F900DA49FE6
:10028000800D911D11240895A29FB001B39FC0015C
:10029000A39F700D811D1124911DB29F700D811DB2
:0A02A0001124911D0895F894FFCF7A
:1002AA0001000800400000010004010002000300F0
:0C02BA000400050037018801D2016E022B
:00000001FF
