:100000000C9434000C943E000C943E000C943E0082
:100010000C943E000C943E000C943E000C943E0068
:100020000C943E000C943E000C943E000C943E0058
:100030000C943E000C943E000C943E000C943E0048
:100040000C943E000C943E000C943E000C943E0038
:100050000C943E000C943E000C943E000C943E0028
:100060000C943E000C943E0011241FBECFEFD8E04C
:10007000DEBFCDBF0E9454000C946B000C940000B6
:10008000569A84B5836084BD85B5877F85BD84B568
:10009000806884BD84B58F7B84BD85B5836085BD54
:1000A00085B58B7F85BD08950E94400080E087BDA7
:1000B000EFE3FCE93197F1F700C000008F5F8F3F5D
:1000C000B1F787BDEFE3FCE93197F1F700C000001D
:0A00D0008150B9F7EBCFF894FFCF91
:00000001FF
