:100000000C9434000C943E000C943E000C943E0082
:100010000C943E000C943E000C943E000C943E0068
:100020000C943E000C943E000C943E000C943E0058
:100030000C943E000C943E000C943E000C943E0048
:100040000C943E000C943E000C943E000C943E0038
:100050000C943E000C943E000C943E000C943E0028
:100060000C943E000C943E0011241FBECFEFD8E04C
:10007000DEBFCDBF0E9440000C9458000C940000DD
:10008000579884B18F6384B915B84F9BFECF2FEF7B
:1000900089EF90E0215080409040E1F700C00000DF
:1000A0004F9BF3CF85B18F5F85B94F99FECFEDCFD1
:0400B000F894FFCFF2
:00000001FF
