:100000000C9434000C9440000C943E000C943E0080
:100010000C943E000C943E000C943E000C943E0068
:100020000C943E000C943E000C943E000C943E0058
:100030000C943E000C943E000C943E000C943E0048
:100040000C943E000C943E000C943E000C943E0038
:100050000C943E000C943E000C943E000C943E0028
:100060000C943E000C943E0011241FBECFEFD8E04C
:10007000DEBFCDBF0E9473000C9486000C9400007C
:100080001F920F920FB60F9211242F938F939F936D
:100090002FEF80E792E0215080409040E1F700C0D0
:1000A000000085B18F5F85B92FEF84E39CE021507C
:1000B00080409040E1F700C000004A9908C09F913D
:1000C0008F912F910F900FBE0F901F901895E89869
:1000D0002FEF83EC99E0215080409040E1F700C081
:1000E0000000E89AEACF52985A9A84B18F6384B993
:1000F00015B88091690082608093690080916900E1
:100100008E7F809369007894E89AFFCFF894FFCFB0
:00000001FF
