:100000000C9434000C9448000C9446000C94460068
:100010000C9446000C9446000C9446000C94460048
:100020000C9446000C9446000C9446000C94460038
:100030000C9446000C9446000C9446000C94460028
:100040000C9446000C9446000C9446000C94460018
:100050000C9446000C9446000C9446000C94460008
:100060000C9446000C94460011241FBECFEFD8E03C
:10007000DEBFCDBF21E0A0E0B1E001C01D92A13004
:10008000B207E1F70E9473000C948A000C94000000
:100090001F920F920FB60F9211242F938F939F935D
:1000A000E8982FEF81EE94E0215080409040E1F7F6
:1000B00000C000004A9905C0809100018F5F8093C5
:1000C00000012FEF89EF90E0215080409040E1F750
:1000D00000C00000E89A9F918F912F910F900FBE62
:1000E0000F901F90189552985A9A84B18F6384B9D3
:1000F00015B88091690082608093690080916900E1
:100100008E7F80936900E89A7894809100018F73C4
:0801100085B9FBCFF894FFCF85
:00000001FF
