:100000000C9434000C9448000C947B000C94460033
:100010000C9446000C9446000C9446000C94460048
:100020000C9446000C9446000C9446000C94460038
:100030000C9446000C9446000C9446000C94460028
:100040000C9446000C9446000C9446000C94460018
:100050000C9446000C9446000C9446000C94460008
:100060000C9446000C94460011241FBECFEFD8E03C
:10007000DEBFCDBF21E0A0E0B1E001C01D92A13004
:10008000B207E1F70E94AD000C94CB000C94000085
:100090001F920F920FB60F9211242F933F938F93BD
:1000A0009F9325B13091000181E090E001C0880F5D
:1000B0003A95EAF78095822385B92FEF89E698E192
:1000C000215080409040E1F700C000008091000185
:1000D0008F5F863068F4809300014A99FECF9F912C
:1000E0008F913F912F910F900FBE0F901F901895F9
:1000F00010920001F2CF1F920F920FB60F921124AF
:100100002F933F938F939F9385B19091000121E0AE
:1001100030E001C0220F9A95EAF7822B85B92FEFC4
:1001200089E698E1215080409040E1F700C000004E
:10013000809100018F5F863068F4809300014B99B5
:10014000FECF9F918F913F912F910F900FBE0F90F7
:100150001F90189510920001F2CF5298539884B1D5
:100160008F6384B915B880916900826080936900BB
:10017000809169008E7F809369008091690088601A
:1001800080936900809169008B7F809369007894E7
:0A019000E89AE99AFFCFF894FFCF38
:00000001FF
