:100000000C9434000C9497000C94BC000C944600A3
:100010000C9446000C9446000C9446000C94460048
:100020000C9446000C9446000C9446000C94460038
:100030000C9446000C9446000C9446000C94460028
:100040000C9446000C9446000C9446000C94460018
:100050000C9446000C9446000C9446000C94460008
:100060000C9446000C94460011241FBECFEFD8E03C
:10007000DEBFCDBF21E0A0E0B1E001C01D92A23003
:10008000B207E1F70E94E1000C9426010C940000F5
:10009000282F8DB38C7F8DBB3FEF89EF90E03150DF
:1000A00080409040E1F700C00000211106C04A9B4B
:1000B0002AC08DB383608DBB08952130D1F74B9951
:1000C000F8CF909101018091000141E050E001C022
:1000D000440F9A95EAF7842B8093000180910101E7
:1000E00090E0019666E070E00E94FE0080930101BE
:1000F000211118C04A99DDCF8FE39CE90197F1F7F0
:1001000000C00000F5CF409101013091000181E075
:1001100090E002C0880F991F4A95E2F7809590956C
:100120008323DACF213029F64B9BE6CFC2CF1F9233
:100130000F920FB60F9211242F933F934F935F931B
:100140006F937F938F939F93AF93BF93EF93FF939F
:1001500080E00E944800FF91EF91BF91AF919F9185
:100160008F917F916F915F914F913F912F910F9060
:100170000FBE0F901F9018951F920F920FB60F92FF
:1001800011242F933F934F935F936F937F938F939C
:100190009F93AF93BF93EF93FF9381E00E9448003A
:1001A000FF91EF91BF91AF919F918F917F916F914F
:1001B0005F914F913F912F910F900FBE0F901F9025
:1001C00018958AB1837F8AB98BB18C608BB984B161
:1001D0008F6384B915B8809169008A608093690043
:1001E000809169008A7F809369008DB383608DBBA5
:1001F0007894809100018F7385B9FBCF97FB072E10
:1002000016F4009407D077FD09D00E94120107FC74
:1002100005D03EF4909581959F4F08957095619516
:100220007F4F0895AA1BBB1B51E107C0AA1FBB1F2C
:10023000A617B70710F0A61BB70B881F991F5A9572
:10024000A9F780959095BC01CD010895F894FFCF52
:00000001FF
