:100000000C9434000C9487000C94AC000C944600C3
:100010000C9446000C9446000C9446000C94460048
:100020000C9446000C9446000C9446000C94460038
:100030000C9446000C9446000C9446000C94460028
:100040000C9446000C9446000C9446000C94460018
:100050000C9446000C9446000C9446000C94460008
:100060000C9446000C94460011241FBECFEFD8E03C
:10007000DEBFCDBF21E0A0E0B1E001C01D92A23003
:10008000B207E1F70E94D1000C9416010C94000015
:100090009DB39C7F9DBB2FEF31EE94E0215030400B
:1000A0009040E1F700C00000811106C04A9B20C0CB
:1000B0008DB383608DBB08958130D1F74B99F8CF14
:1000C000909101018091000121E030E001C0220FF8
:1000D0009A95EAF7822B809300018091010190E0CC
:1000E000019666E070E00E94EE0080930101E0CF8F
:1000F000309101012091000181E090E002C0880F61
:10010000991F3A95E2F7809590958223E4CF1F924C
:100110000F920FB60F9211242F933F934F935F933B
:100120006F937F938F939F93AF93BF93EF93FF93BF
:1001300080E00E944800FF91EF91BF91AF919F91A5
:100140008F917F916F915F914F913F912F910F9080
:100150000FBE0F901F9018951F920F920FB60F921F
:1001600011242F933F934F935F936F937F938F93BC
:100170009F93AF93BF93EF93FF9381E00E9448005A
:10018000FF91EF91BF91AF919F918F917F916F916F
:100190005F914F913F912F910F900FBE0F901F9045
:1001A00018958AB1837F8AB98BB18C608BB984B181
:1001B0008F6384B915B8809169008A608093690063
:1001C000809169008A7F809369008DB383608DBBC5
:1001D0007894809100018F7385B9FBCF97FB072E30
:1001E00016F4009407D077FD09D00E94020107FCA5
:1001F00005D03EF4909581959F4F08957095619537
:100200007F4F0895AA1BBB1B51E107C0AA1FBB1F4C
:10021000A617B70710F0A61BB70B881F991F5A9592
:10022000A9F780959095BC01CD010895F894FFCF72
:00000001FF
