:100000000C9434000C943E000C943E000C943E0082
:100010000C943E000C943E000C943E000C943E0068
:100020000C943E000C943E000C943E000C943E0058
:100030000C943E000C943E000C943E000C943E0048
:100040000C943E000C943E000C943E000C943E0038
:100050000C943E000C943E000C943E000C943E0028
:100060000C943E000C943E0011241FBECFEFD8E04C
:10007000DEBFCDBF0E9450000C945D000C940000C8
:1000800083E886BD14BC84E085BD80916E008160EC
:1000900080936E00A89BFECF14BC15BCA89A08954F
:1000A000259A2D9810E2CAEFD0E00E9440002197D7
:0E00B000E1F785B1812785B9F6CFF894FFCF2F
:00000001FF
