:100000000C9434000C9446000C9446000C9446006A
:100010000C9446000C9446000C9446000C94460048
:100020000C9446000C9446000C9446000C94460038
:100030000C9446000C9446000C9446000C94460028
:100040000C945B000C9446000C9446000C94460003
:100050000C9446000C9446000C9446000C94460008
:100060000C9446000C94460011241FBECFEFD8E03C
:10007000DEBFCDBF21E0A0E0B1E001C01D92A13004
:10008000B207E1F70E946D000C9476000C9400001A
:1000900016BC14BC85E085BD80916E0081608093A4
:1000A0006E007894809100018F31E0F314BC15BC90
:1000B0001092000108951F920F920FB60F92112413
:1000C0008F93809100018F5F8093000116BC8F9108
:1000D0000F900FBE0F901F901895259A2D98C0E293
:1000E0000E94480085B18C2785B9FACFF894FFCFDC
:00000001FF
