:100000000C9434000C943E000C943E000C943E0082
:100010000C943E000C943E000C943E000C943E0068
:100020000C943E000C943E000C943E000C943E0058
:100030000C943E000C9452000C943E000C943E0034
:100040000C943E000C943E000C943E000C943E0038
:100050000C943E000C943E000C943E000C943E0028
:100060000C943E000C943E0011241FBECFEFD8E04C
:10007000DEBFCDBF0E946A000C94A9000C94000062
:1000800087EF92EC9093850080938400109280001B
:1000900085E080938100EFE6F0E0808181608083DD
:1000A000789408951F920F920FB60F9211248F9398
:1000B0009F9385B190E2892785B987EF92EC909361
:1000C0008500809384009F918F910F900FBE0F90B9
:1000D0001F90189584B18E6384B985B1817C85B9F0
:1000E0000E94400041E050E021E030E085B18072A4
:1000F000BA01022E01C0660F0A94EAF7862B85B971
:100100006FEF81EE94E0615080409040E1F700C0D5
:1001100000002F5F3F4F2530310541F785B18072D8
:10012000886085B92FEF61EE84E021506040804007
:10013000E1F700C0000085B18072846085B99FEF4F
:1001400021EE64E0915020406040E1F700C00000E3
:06015000CBCFF894FFCFB5
:00000001FF
