:100000000C9434000C9446000C9446000C9446006A
:100010000C9446000C9446000C9446000C94460048
:100020000C9446000C947E000C9446000C94460000
:100030000C9446000C9446000C9446000C94460028
:100040000C9460000C9446000C9446000C944600FE
:100050000C9446000C9446000C9446000C94460008
:100060000C9446000C94460011241FBECFEFD8E03C
:10007000DEBFCDBF21E0A0E0B1E001C01D92A630FF
:10008000B207E1F70E94A5000C94AD000C940000AB
:100090008BEC86BD14BC94E095BDEEE6F0E080816B
:1000A000816080838EEE8093B2001092B0009093B6
:1000B000B100E0E7F0E0808181608083789408956A
:1000C0001F920F920FB60F9211248F939F938BEC78
:1000D00086BD809105018F5F809305018C3030F0E3
:1000E00085B190E1892785B91092050116BC9F91D1
:1000F0008F910F900FBE0F901F9018951F920F9227
:100100000FB60F9211248F939F938EEE8093B200BF
:1001100080910301909104010196909304018093D2
:1001200003018A37910540F085B190E2892785B9AE
:1001300010920401109203011092B2009F918F91CE
:100140000F900FBE0F901F901895249A259A85B195
:0E0150008F7C85B90E944800FFCFF894FFCF46
:00000001FF
