:100000000C9434000C9446000C9446000C9446006A
:100010000C9446000C9446000C9446000C94460048
:100020000C9446000C9446000C9446000C948500F9
:100030000C9446000C9446000C9446000C94460028
:100040000C9460000C9446000C9446000C944600FE
:100050000C9446000C9446000C9446000C94460008
:100060000C9446000C94460011241FBECFEFD8E03C
:10007000DEBFCDBF21E0A0E0B1E001C01D92A13004
:10008000B207E1F70E9497000C94A0000C940000C6
:100090008BEC86BD14BC84E085BD81E080936E004E
:1000A000109280008CE08093810081E19AE7909328
:1000B00089008093880082E080936F00789408958F
:1000C0001F920F920FB60F9211248F939F938091DE
:1000D000000181110DC016BC809100018F5F8093DB
:1000E00000019F918F910F900FBE0F901F90189558
:1000F000809100018C3080F385B190E1892785B92A
:100100008BEC86BD10920001ECCF1F920F920FB6C0
:100110000F9211248F939F9385B190E2892785B91F
:100120009F918F910F900FBE0F901F90189584B1E3
:10013000806384B985B18F7C85B90E944800FFCF68
:04014000F894FFCF61
:00000001FF
