:100000000C9434000C9449000C9449000C94490061
:100010000C9449000C9449000C9449000C9449003C
:100020000C9449000C9449000C9449000C9449002C
:100030000C9449000C9449000C9449000C9449001C
:100040000C9449000C9449000C9449000C9449000C
:100050000C9449000C9449000C9449000C944900FC
:100060000C9449000C94490011241FBECFEFD8E036
:10007000DEBFCDBF11E0A0E0B1E0E2E4F2E002C0FB
:1000800005900D92A235B107D9F70E94A7000C94F4
:100090001F010C940000A1ECB0E08C9188608C935F
:1000A0008C9180618C9387E68093C4001092C50088
:1000B000E2ECF0E080818F77808380818F7B80838A
:1000C0008C918B7F8C9380818660808380818F7EF2
:1000D000808380818F7D80838081877F8083089566
:1000E0009091C00095FFFCCF8093C6000895809149
:1000F000C00087FFFCCF8091C60008959FEB980F4A
:100100009A3150F4082E000C990BCE976AE170E0FA
:100110000E94F7008F5B08959FE9980F9A3150F481
:10012000082E000C990B8E5591096AE170E00E942F
:10013000F7008F590895CF93DF93EC0189918111D6
:1001400003C0DF91CF9108950E947000F7CFCF9345
:10015000DF93CDB7DEB7C456D1090FB6F894DEBF32
:100160000FBECDBF2FEF83E294EF2150804090402F
:10017000E1F700C000000E944B0080E091E00E9487
:100180009B00EFEFF3ED20E3E150F0402040E1F77A
:1001900000C000005E0185E6A80EB11C8E010F5F55
:1001A0001F4FF801D02EE12E1192EA15FB05E1F761
:1001B0000E947700F82E9DE0891761F0EAE08E1723
:1001C00049F00E9470008F2D0E947E00F8018193FB
:1001D0008F01EECF88E291E00E949B008D2D9E2D35
:1001E0000E949B0086E391E00E949B00D7CF97FB83
:1001F000072E16F4009407D077FD09D00E940B015A
:1002000007FC05D03EF4909581959F4F0895709519
:1002100061957F4F0895AA1BBB1B51E107C0AA1F20
:10022000BB1FA617B70710F0A61BB70B881F991F97
:100230005A95A9F780959095BC01CD010895F89441
:02024000FFCFEE
:10024200456E746572207468652073656E74656EA0
:10025200636520616E64207072657373203C454E45
:100262005445523E3A0D0A000D0A456E637279708A
:100272007465643A20000D0A0D0A456E7465722099
:100282006E6578742073656E74656E63653A0D0AE7
:0202920000006A
:00000001FF
