:100000000C9434000C943E000C943E000C943E0082
:100010000C943E000C943E000C943E000C943E0068
:100020000C943E000C943E000C943E000C943E0058
:100030000C943E000C943E000C943E000C943E0048
:100040000C943E000C943E000C943E000C943E0038
:100050000C943E000C943E000C943E000C943E0028
:100060000C943E000C943E0011241FBECFEFD8E04C
:10007000DEBFCDBF0E9459000C9474000C940000A8
:100080009093C5008093C40088E18093C10086E00E
:100090008093C20008959091C00095FFFCCF80939B
:1000A000C60008958091C00087FFFCCF8091C600F4
:1000B000089587E690E00E944000259AC0E285B14D
:1000C0008C2785B92FEF89E698E121508040904038
:1000D000E1F700C000008091C00087FFF0CF0E94D0
:0C00E00052000E944B00EBCFF894FFCFC1
:00000001FF
